{
  "address": "0xa98b9f2D8426DF201F4732947635C52841b04a25",
  "abi": [
    {
      "inputs": [
        {
          "internalType": "contract IPoolAddressesProvider",
          "name": "_provider",
          "type": "address"
        }
      ],
      "stateMutability": "nonpayable",
      "type": "constructor"
    },
    {
      "inputs": [],
      "name": "ADDRESSES_PROVIDER",
      "outputs": [
        {
          "internalType": "contract IPoolAddressesProvider",
          "name": "",
          "type": "address"
        }
      ],
      "stateMutability": "view",
      "type": "function"
    },
    {
      "inputs": [],
      "name": "POOL",
      "outputs": [
        {
          "internalType": "contract IPool",
          "name": "",
          "type": "address"
        }
      ],
      "stateMutability": "view",
      "type": "function"
    },
    {
      "inputs": [
        {
          "components": [
            {
              "internalType": "address",
              "name": "flashLoanPool",
              "type": "address"
            },
            {
              "internalType": "address",
              "name": "loanToken",
              "type": "address"
            },
            {
              "internalType": "uint256",
              "name": "loanAmount",
              "type": "uint256"
            },
            {
              "components": [
                {
                  "components": [
                    {
                      "internalType": "uint8",
                      "name": "protocol",
                      "type": "uint8"
                    },
                    {
                      "internalType": "bytes",
                      "name": "data",
                      "type": "bytes"
                    },
                    {
                      "internalType": "address[]",
                      "name": "path",
                      "type": "address[]"
                    }
                  ],
                  "internalType": "struct IFlashloan.Hop[]",
                  "name": "hops",
                  "type": "tuple[]"
                },
                {
                  "internalType": "uint16",
                  "name": "part",
                  "type": "uint16"
                }
              ],
              "internalType": "struct IFlashloan.Route[]",
              "name": "routes",
              "type": "tuple[]"
            }
          ],
          "internalType": "struct IFlashloan.FlashloanParams",
          "name": "_params",
          "type": "tuple"
        }
      ],
      "name": "aaveFlashLoan",
      "outputs": [],
      "stateMutability": "nonpayable",
      "type": "function"
    },
    {
      "inputs": [
        {
          "internalType": "address",
          "name": "_asset",
          "type": "address"
        },
        {
          "internalType": "uint256",
          "name": "_amount",
          "type": "uint256"
        },
        {
          "internalType": "uint256",
          "name": "_premium",
          "type": "uint256"
        },
        {
          "internalType": "address",
          "name": "_initiator",
          "type": "address"
        },
        {
          "internalType": "bytes",
          "name": "_params",
          "type": "bytes"
        }
      ],
      "name": "executeOperation",
      "outputs": [
        {
          "internalType": "bool",
          "name": "",
          "type": "bool"
        }
      ],
      "stateMutability": "nonpayable",
      "type": "function"
    }
  ],
  "transactionHash": "0xa7760126d398fde833851ddea0f9c3f6efe82e9a305fef858c04fa2d789e21a8",
  "args": [
    "0xa97684ead0e402dC232d5A977953DF7ECBaB3CDb"
  ],
  "numDeployments": 1,
  "solcInputHash": "06e68074111fe2c031a8f7b0411cf9f1",
  "bytecode": "0x60c06040523480156200001157600080fd5b5060405162001b1838038062001b188339810160408190526200003491620000fb565b80806001600160a01b03166080816001600160a01b031681525050806001600160a01b031663026b1d5f6040518163ffffffff1660e01b8152600401602060405180830381865afa1580156200008e573d6000803e3d6000fd5b505050506040513d601f19601f82011682018060405250810190620000b49190620000fb565b6001600160a01b0390811660a052600080546001600160a01b03191693909116929092179091555062000122565b6001600160a01b0381168114620000f857600080fd5b50565b6000602082840312156200010e57600080fd5b81516200011b81620000e2565b9392505050565b60805160a0516119cb6200014d6000396000818160b6015261033201526000605601526119cb6000f3fe608060405234801561001057600080fd5b506004361061004c5760003560e01c80630542975c146100515780631b11d0ff1461008e5780637535d246146100b1578063d9de2207146100d8575b600080fd5b6100787f000000000000000000000000000000000000000000000000000000000000000081565b6040516100859190610e87565b60405180910390f35b6100a161009c366004610eb0565b6100ed565b6040519015158152602001610085565b6100787f000000000000000000000000000000000000000000000000000000000000000081565b6100eb6100e6366004610f59565b610292565b005b600061011c6040518060400160405280600b81526020016a034b734ba34b0ba37b91d160ad1b8152508561055c565b600061012a8385018561132b565b905061013a8160600151886105a5565b60408051808201909152600f81526e03932b337bab732103a37ba30b61d1608d1b60208201526101739061016e888a6113f4565b6106de565b604080518082018252600981526803130b630b731b29d160bd1b602082015290516370a0823160e01b815261020391906001600160a01b038b16906370a08231906101c2903090600401610e87565b602060405180830381865afa1580156101df573d6000803e3d6000fd5b505050506040513d601f19601f8201168201806040525081019061016e919061140c565b6000546001600160a01b03808a169163095ea7b39116610223898b6113f4565b6040518363ffffffff1660e01b8152600401610240929190611425565b6020604051808303816000875af115801561025f573d6000803e3d6000fd5b505050506040513d601f19601f82011682018060405250810190610283919061143e565b50600198975050505050505050565b6040805160808101909152600090806102ae6020850185611460565b6001600160a01b031681526020018360200160208101906102cf9190611460565b6001600160a01b031681526040808501356020830152016102f3606085018561147d565b6102fc916114cd565b905260405161030e919060200161156b565b604051602081830303815290604052905061032881610723565b6001600160a01b037f0000000000000000000000000000000000000000000000000000000000000000166342b0b77c306103686040860160208701611460565b85604001358560006040518663ffffffff1660e01b815260040161039095949392919061168c565b600060405180830381600087803b1580156103aa57600080fd5b505af11580156103be573d6000803e3d6000fd5b50600092506103d69150506040840160208501611460565b6001600160a01b03166370a08231306040518263ffffffff1660e01b81526004016104019190610e87565b602060405180830381865afa15801561041e573d6000803e3d6000fd5b505050506040513d601f19601f82011682018060405250810190610442919061140c565b905061046c604051806040016040528060068152602001651c1c9bd99a5d60d21b815250826106de565b61047c6040840160208501611460565b6001600160a01b031663a9059cbb33836040518363ffffffff1660e01b81526004016104a9929190611425565b6020604051808303816000875af11580156104c8573d6000803e3d6000fd5b505050506040513d601f19601f820116820180604052508101906104ec919061143e565b6105575760405162461bcd60e51b815260206004820152603160248201527f61617665466c6173684c6f616e3a20436f756c64206e6f74207472616e7366656044820152701c88189858dac81d1a19481c1c9bd99a5d607a1b60648201526084015b60405180910390fd5b505050565b6105a182826040516024016105729291906116d5565b60408051601f198184030181529190526020810180516001600160e01b031663319af33360e01b179052610769565b5050565b816000805b82518110156105f0578281815181106105c5576105c56116ff565b602002602001015160200151826105dc9190611715565b9150806105e88161173b565b9150506105aa565b506106226040518060400160405280600b81526020016a03a37ba30b62830b93a1d160ad1b8152508261ffff166106de565b8061ffff166127101461066a5760405162461bcd60e51b815260206004820152601060248201526f2937baba32903830b93a1032b93937b960811b604482015260640161054e565b60005b84518110156106d757600061069f86838151811061068d5761068d6116ff565b6020026020010151602001518661078a565b90506106c48683815181106106b6576106b66116ff565b6020026020010151826107ae565b50806106cf8161173b565b91505061066d565b5050505050565b6105a182826040516024016106f4929190611756565b60408051601f198184030181529190526020810180516001600160e01b03166309710a9d60e41b179052610769565b610766816040516024016107379190611778565b60408051601f198184030181529190526020810180516001600160e01b03166305f3bfab60e11b179052610769565b50565b80516a636f6e736f6c652e6c6f67602083016000808483855afa5050505050565b600061271061079d61ffff85168461178b565b6107a791906117aa565b9392505050565b8060005b8351518110156107f7576107e3846000015182815181106107d5576107d56116ff565b6020026020010151836107fd565b9150806107ef8161173b565b9150506107b2565b50505050565b815160009060ff1661084e5761081c8360200151838560400151610891565b905061084960405180604001604052806009815260200168185b5bdd5b9d13dd5d60ba1b815250826106de565b61088b565b6008836000015160ff161015610878576108718360200151838560400151610a4e565b905061088b565b6107a78360200151838560400151610bc7565b92915050565b6000806000858060200190518101906108aa91906117cc565b9150915060008290506108d8856000815181106108c9576108c96116ff565b60200260200101518288610dca565b806001600160a01b031663414bf38960405180610100016040528088600081518110610906576109066116ff565b60200260200101516001600160a01b031681526020018860018151811061092f5761092f6116ff565b60200260200101516001600160a01b031681526020018562ffffff168152602001306001600160a01b031681526020014281526020018981526020016000815260200160006001600160a01b03168152506040518263ffffffff1660e01b8152600401610a00919081516001600160a01b03908116825260208084015182169083015260408084015162ffffff16908301526060808401518216908301526080808401519083015260a0838101519083015260c0808401519083015260e09283015116918101919091526101000190565b6020604051808303816000875af1158015610a1f573d6000803e3d6000fd5b505050506040513d601f19601f82011682018060405250810190610a43919061140c565b979650505050505050565b60008084806020019051810190610a65919061180e565b9050610aac6040518060400160405280600981526020016803830ba342d982e9d160bd1b81525084600081518110610a9f57610a9f6116ff565b602002602001015161055c565b610ad66040518060400160405280600881526020016703937baba32b91d160c51b8152508261055c565b610b026040518060400160405280600a815260200169030b6b7bab73a24b71d160b51b815250856106de565b610b2783600081518110610b1857610b186116ff565b60200260200101518286610dca565b6040516338ed173960e01b81526001600160a01b038216906338ed173990610b5c90879060019088903090429060040161182b565b6000604051808303816000875af1158015610b7b573d6000803e3d6000fd5b505050506040513d6000823e601f3d908101601f19168201604052610ba39190810190611867565b600181518110610bb557610bb56116ff565b60200260200101519150509392505050565b60008060008086806020019051810190610be191906118ec565b604080516001808252818301909252939650919450925060009190602080830190803683370190505090508381600081518110610c2057610c206116ff565b60200260200101906001600160a01b031690816001600160a01b031681525050600086600081518110610c5557610c556116ff565b60200260200101516001600160a01b0316856001600160a01b0316634a248d2a6040518163ffffffff1660e01b8152600401602060405180830381865afa158015610ca4573d6000803e3d6000fd5b505050506040513d601f19601f82011682018060405250810190610cc8919061180e565b6001600160a01b031614610cdd576001610ce0565b60005b60ff169050610d0a87600081518110610cfb57610cfb6116ff565b6020026020010151858a610dca565b826001600160a01b031663f87dc1b788600081518110610d2c57610d2c6116ff565b602002602001015189600181518110610d4757610d476116ff565b60200260200101518b600187876000426040518963ffffffff1660e01b8152600401610d7a989796959493929190611939565b6020604051808303816000875af1158015610d99573d6000803e3d6000fd5b505050506040513d601f19601f82011682018060405250810190610dbd919061140c565b9998505050505050505050565b60405163095ea7b360e01b81526001600160a01b0384169063095ea7b390610df89085908590600401611425565b6020604051808303816000875af1158015610e17573d6000803e3d6000fd5b505050506040513d601f19601f82011682018060405250810190610e3b919061143e565b6105575760405162461bcd60e51b815260206004820152601a60248201527f466c6173686c6f616e3a20617070726f7665206661696c65642e000000000000604482015260640161054e565b6001600160a01b0391909116815260200190565b6001600160a01b038116811461076657600080fd5b60008060008060008060a08789031215610ec957600080fd5b8635610ed481610e9b565b955060208701359450604087013593506060870135610ef281610e9b565b925060808701356001600160401b0380821115610f0e57600080fd5b818901915089601f830112610f2257600080fd5b813581811115610f3157600080fd5b8a6020828501011115610f4357600080fd5b6020830194508093505050509295509295509295565b600060208284031215610f6b57600080fd5b81356001600160401b03811115610f8157600080fd5b8201608081850312156107a757600080fd5b634e487b7160e01b600052604160045260246000fd5b604080519081016001600160401b0381118282101715610fcb57610fcb610f93565b60405290565b604051606081016001600160401b0381118282101715610fcb57610fcb610f93565b604051608081016001600160401b0381118282101715610fcb57610fcb610f93565b604051601f8201601f191681016001600160401b038111828210171561103d5761103d610f93565b604052919050565b60006001600160401b0382111561105e5761105e610f93565b5060051b60200190565b600082601f83011261107957600080fd5b8135602061108e61108983611045565b611015565b82815260059290921b840181019181810190868411156110ad57600080fd5b8286015b848110156110d15780356110c481610e9b565b83529183019183016110b1565b509695505050505050565b803561ffff811681146110ee57600080fd5b919050565b600061110161108984611045565b838152905060208101600584901b830185101561111d57600080fd5b825b8460051b8401811015611322576001600160401b038135111561114157600080fd5b6040813585018703121561115457600080fd5b61115c610fa9565b6001600160401b038235860135111561117457600080fd5b81358501803501601f8101881361118a57600080fd5b6111976110898235611045565b81358082526020808301929160051b8401018a10156111b557600080fd5b602083015b6020843560051b8501018110156112f7576001600160401b03813511156111e057600080fd5b80358401601f196060828e03820112156111f957600080fd5b611201610fd1565b602083013560ff81161461121457600080fd5b602083013581526001600160401b036040840135111561123357600080fd5b8d603f60408501358501011261124857600080fd5b60206040840135840101356001600160401b0381111561126a5761126a610f93565b61127b602084601f84011601611015565b92508083528e604082604087013587010101111561129857600080fd5b806040808601358601016020850137600060208285010152508160208201526001600160401b03606084013511156112cf57600080fd5b6112e28e60206060860135860101611068565b604082015285525050602092830192016111ba565b5083525061130c9050823586016020016110dc565b602082810191909152908352918201910161111f565b50509392505050565b60006020828403121561133d57600080fd5b81356001600160401b038082111561135457600080fd5b908301906080828603121561136857600080fd5b611370610ff3565b823561137b81610e9b565b8152602083013561138b81610e9b565b6020820152604083810135908201526060830135828111156113ac57600080fd5b80840193505085601f8401126113c157600080fd5b6113d0868435602086016110f3565b606082015295945050505050565b634e487b7160e01b600052601160045260246000fd5b60008219821115611407576114076113de565b500190565b60006020828403121561141e57600080fd5b5051919050565b6001600160a01b03929092168252602082015260400190565b60006020828403121561145057600080fd5b815180151581146107a757600080fd5b60006020828403121561147257600080fd5b81356107a781610e9b565b6000808335601e1984360301811261149457600080fd5b8301803591506001600160401b038211156114ae57600080fd5b6020019150600581901b36038213156114c657600080fd5b9250929050565b60006107a73684846110f3565b6000815180845260005b81811015611500576020818501810151868301820152016114e4565b81811115611512576000602083870101525b50601f01601f19169290920160200192915050565b600081518084526020808501945080840160005b838110156115605781516001600160a01b03168752958201959082019060010161153b565b509495945050505050565b602080825282516001600160a01b0390811683830152838201511660408084019190915283015160608084019190915280840151608080850152805160a085018190526000939260c0600583901b870181019385019290870190865b8181101561167e5788860360bf190183528451805160408089528151908901819052600581901b89018701918a0190878a019060005b8181101561165b57605f198c8603018352835160ff81511686528d8101518b8f88015261162c8c8801826114da565b90506040820151915086810360408801526116478183611527565b96505050928c0192918c01916001016115fd565b505050509088015161ffff169688019690965293860193918601916001016115c7565b509398975050505050505050565b6001600160a01b038681168252851660208201526040810184905260a0606082018190526000906116bf908301856114da565b905061ffff831660808301529695505050505050565b6040815260006116e860408301856114da565b905060018060a01b03831660208301529392505050565b634e487b7160e01b600052603260045260246000fd5b600061ffff808316818516808303821115611732576117326113de565b01949350505050565b600060001982141561174f5761174f6113de565b5060010190565b60408152600061176960408301856114da565b90508260208301529392505050565b6020815260006107a760208301846114da565b60008160001904831182151516156117a5576117a56113de565b500290565b6000826117c757634e487b7160e01b600052601260045260246000fd5b500490565b600080604083850312156117df57600080fd5b82516117ea81610e9b565b602084015190925062ffffff8116811461180357600080fd5b809150509250929050565b60006020828403121561182057600080fd5b81516107a781610e9b565b85815284602082015260a06040820152600061184a60a0830186611527565b6001600160a01b0394909416606083015250608001529392505050565b6000602080838503121561187a57600080fd5b82516001600160401b0381111561189057600080fd5b8301601f810185136118a157600080fd5b80516118af61108982611045565b81815260059190911b820183019083810190878311156118ce57600080fd5b928401925b82841015610a43578351825292840192908401906118d3565b60008060006060848603121561190157600080fd5b835161190c81610e9b565b602085015190935061191d81610e9b565b604085015190925061192e81610e9b565b809150509250925092565b6001600160a01b0389811682528816602082015260408101879052606081018690526101006080820181905260009061197483820188611527565b60a0840196909652505091151560c083015260e0909101529594505050505056fea264697066735822122021cea8b60df81d01b7628422c60fbda0cbd7707a92d209caab7431774c71079864736f6c634300080a0033",
  "devdoc": {
    "kind": "dev",
    "methods": {},
    "version": 1
  },
  "userdoc": {
    "kind": "user",
    "methods": {},
    "version": 1
  },
  "storageLayout": {
    "storage": [
      {
        "astId": 1572,
        "contract": "contracts/Flashloan.sol:Flashloan",
        "label": "AAVEPoolAddress",
        "offset": 0,
        "slot": "0",
        "type": "t_address"
      },
      {
        "astId": 1575,
        "contract": "contracts/Flashloan.sol:Flashloan",
        "label": "curveFi",
        "offset": 0,
        "slot": "1",
        "type": "t_contract(ICurveFi)3748"
      }
    ],
    "types": {
      "t_address": {
        "encoding": "inplace",
        "label": "address",
        "numberOfBytes": "20"
      },
      "t_contract(ICurveFi)3748": {
        "encoding": "inplace",
        "label": "contract ICurveFi",
        "numberOfBytes": "20"
      }
    }
  }
}